{
  "contractName": "customer",
  "abi": [
    {
      "constant": false,
      "inputs": [
        {
          "name": "_person",
          "type": "address"
        },
        {
          "name": "_merchant",
          "type": "address"
        },
        {
          "name": "_amount",
          "type": "uint256"
        },
        {
          "name": "bankacntID",
          "type": "uint256"
        }
      ],
      "name": "saveCustomerTransaction",
      "outputs": [],
      "payable": false,
      "stateMutability": "nonpayable",
      "type": "function"
    },
    {
      "constant": true,
      "inputs": [
        {
          "name": "_customer",
          "type": "address"
        }
      ],
      "name": "getCutsomerTransaction",
      "outputs": [
        {
          "name": "",
          "type": "uint256"
        },
        {
          "name": "",
          "type": "uint256"
        },
        {
          "name": "",
          "type": "address"
        }
      ],
      "payable": false,
      "stateMutability": "view",
      "type": "function"
    }
  ],
  "bytecode": "0x6060604052341561000f57600080fd5b61037e8061001e6000396000f30060606040526004361061004c576000357c0100000000000000000000000000000000000000000000000000000000900463ffffffff168063a4c43fbb14610051578063cefa3bb7146100d8575b600080fd5b341561005c57600080fd5b610088600480803573ffffffffffffffffffffffffffffffffffffffff16906020019091905050610142565b604051808481526020018381526020018273ffffffffffffffffffffffffffffffffffffffff1673ffffffffffffffffffffffffffffffffffffffff168152602001935050505060405180910390f35b34156100e357600080fd5b610140600480803573ffffffffffffffffffffffffffffffffffffffff1690602001909190803573ffffffffffffffffffffffffffffffffffffffff16906020019091908035906020019091908035906020019091905050610222565b005b600080600061014f61031a565b6000808673ffffffffffffffffffffffffffffffffffffffff1673ffffffffffffffffffffffffffffffffffffffff1681526020019081526020016000206060604051908101604052908160008201548152602001600182015481526020016002820160009054906101000a900473ffffffffffffffffffffffffffffffffffffffff1673ffffffffffffffffffffffffffffffffffffffff1673ffffffffffffffffffffffffffffffffffffffff16815250509050806000015181602001518260400151935093509350509193909250565b61022a61031a565b818160000181815250508281602001818152505083816040019073ffffffffffffffffffffffffffffffffffffffff16908173ffffffffffffffffffffffffffffffffffffffff1681525050806000808773ffffffffffffffffffffffffffffffffffffffff1673ffffffffffffffffffffffffffffffffffffffff168152602001908152602001600020600082015181600001556020820151816001015560408201518160020160006101000a81548173ffffffffffffffffffffffffffffffffffffffff021916908373ffffffffffffffffffffffffffffffffffffffff1602179055509050505050505050565b6060604051908101604052806000815260200160008152602001600073ffffffffffffffffffffffffffffffffffffffff16815250905600a165627a7a723058209794d604d5f412ea0317fbbba4f32bea4ef7b8e5c55b9079b65bd6d367f4ab850029",
  "source": "pragma solidity ^0.4.4;\n\ncontract customer {\n\n  struct person {\n    uint bankaccountNumber;\n    uint amount;\n    address merchant;\n  }\n\n  mapping (address => person) customer;\n\n  function saveCustomerTransaction(address _person, address _merchant, uint _amount, uint bankacntID) {\n    person memory user;\n    user.bankaccountNumber = bankacntID;\n    user.amount = _amount;\n    user.merchant = _merchant;\n\n    customer[_person] = user;\n  }\n\n  function getCutsomerTransaction(address _customer) constant returns (uint, uint, address) {\n    person memory getCustomer;\n    getCustomer = customer[_customer];\n    return (getCustomer.bankaccountNumber, getCustomer.amount, getCustomer.merchant);\n  }\n}",
  "sourcePath": "/Users/rsureen/Documents/projects/angelhack/merchant/contracts/merchant.sol",
  "compiler": {
    "name": "solc",
    "version": "0.4.19+commit.c4cbbb05.Emscripten.clang"
  },
  "schemaVersion": "2.0.0",
  "updatedAt": "2018-03-07T14:18:14.882Z"
}