{
  "contractName": "Instructor",
  "abi": [
    {
      "constant": false,
      "inputs": [
        {
          "name": "_fname",
          "type": "string"
        },
        {
          "name": "_age",
          "type": "uint256"
        }
      ],
      "name": "setMerchant",
      "outputs": [],
      "payable": false,
      "stateMutability": "nonpayable",
      "type": "function"
    },
    {
      "constant": true,
      "inputs": [],
      "name": "getInstructor",
      "outputs": [
        {
          "name": "",
          "type": "string"
        },
        {
          "name": "",
          "type": "uint256"
        }
      ],
      "payable": false,
      "stateMutability": "view",
      "type": "function"
    }
  ],
  "bytecode": "0x6060604052341561000f57600080fd5b6103058061001e6000396000f30060606040526004361061004c576000357c0100000000000000000000000000000000000000000000000000000000900463ffffffff1680633c1b81a514610051578063989d0cd4146100e6575b600080fd5b341561005c57600080fd5b61006461014c565b6040518080602001838152602001828103825284818151815260200191508051906020019080838360005b838110156100aa57808201518184015260208101905061008f565b50505050905090810190601f1680156100d75780820380516001836020036101000a031916815260200191505b50935050505060405180910390f35b34156100f157600080fd5b61014a600480803590602001908201803590602001908080601f016020809104026020016040519081016040528093929190818152602001838380828437820191505050505050919080359060200190919050506101fe565b005b610154610220565b600080600154818054600181600116156101000203166002900480601f0160208091040260200160405190810160405280929190818152602001828054600181600116156101000203166002900480156101ef5780601f106101c4576101008083540402835291602001916101ef565b820191906000526020600020905b8154815290600101906020018083116101d257829003601f168201915b50505050509150915091509091565b8160009080519060200190610214929190610234565b50806001819055505050565b602060405190810160405280600081525090565b828054600181600116156101000203166002900490600052602060002090601f016020900481019282601f1061027557805160ff19168380011785556102a3565b828001600101855582156102a3579182015b828111156102a2578251825591602001919060010190610287565b5b5090506102b091906102b4565b5090565b6102d691905b808211156102d25760008160009055506001016102ba565b5090565b905600a165627a7a723058203100a616d7d7c71d6a1b50976c8b0ef7838269800c5e66a92b3672e63dbbcc790029",
  "source": "pragma solidity ^0.4.18;\n\ncontract Instructor {\n    string fname;\n    uint age;\n    \n    function setMerchant(string _fname, uint _age) public {\n        fname = _fname;\n        age = _age;\n    }\n    function getInstructor() public constant returns (string, uint) {\n        return (fname, age);\n    }\n}",
  "sourcePath": "/Users/rsureen/Documents/projects/angelhack/merchant/contracts/Instructor.sol",
  "compiler": {
    "name": "solc",
    "version": "0.4.19+commit.c4cbbb05.Emscripten.clang"
  },
  "schemaVersion": "2.0.0",
  "updatedAt": "2018-03-08T00:51:09.102Z"
}