{
  "contractName": "Merchant",
  "abi": [
    {
      "constant": false,
      "inputs": [
        {
          "name": "_person",
          "type": "address"
        },
        {
          "name": "_account",
          "type": "bytes32"
        },
        {
          "name": "_amount",
          "type": "bytes32"
        },
        {
          "name": "_merchant",
          "type": "address"
        }
      ],
      "name": "saveCustomerTransaction",
      "outputs": [],
      "payable": false,
      "stateMutability": "nonpayable",
      "type": "function"
    },
    {
      "constant": true,
      "inputs": [
        {
          "name": "_person",
          "type": "address"
        }
      ],
      "name": "getCustomerTransaction",
      "outputs": [
        {
          "name": "",
          "type": "bytes32"
        },
        {
          "name": "",
          "type": "bytes32"
        },
        {
          "name": "",
          "type": "address"
        }
      ],
      "payable": false,
      "stateMutability": "view",
      "type": "function"
    }
  ],
  "bytecode": "0x6060604052341561000f57600080fd5b6103cc8061001e6000396000f30060606040526004361061004c576000357c0100000000000000000000000000000000000000000000000000000000900463ffffffff168063cdc4a6a214610051578063d71bd75c146100c3575b600080fd5b341561005c57600080fd5b6100c1600480803573ffffffffffffffffffffffffffffffffffffffff16906020019091908035600019169060200190919080356000191690602001909190803573ffffffffffffffffffffffffffffffffffffffff1690602001909190505061015a565b005b34156100ce57600080fd5b6100fa600480803573ffffffffffffffffffffffffffffffffffffffff16906020019091905050610272565b60405180846000191660001916815260200183600019166000191681526020018273ffffffffffffffffffffffffffffffffffffffff1673ffffffffffffffffffffffffffffffffffffffff168152602001935050505060405180910390f35b610162610362565b8381600001906000191690816000191681525050828160200190600019169081600019168152505081816040019073ffffffffffffffffffffffffffffffffffffffff16908173ffffffffffffffffffffffffffffffffffffffff1681525050806000808773ffffffffffffffffffffffffffffffffffffffff1673ffffffffffffffffffffffffffffffffffffffff168152602001908152602001600020600082015181600001906000191690556020820151816001019060001916905560408201518160020160006101000a81548173ffffffffffffffffffffffffffffffffffffffff021916908373ffffffffffffffffffffffffffffffffffffffff1602179055509050505050505050565b600080600061027f610362565b6000808673ffffffffffffffffffffffffffffffffffffffff1673ffffffffffffffffffffffffffffffffffffffff168152602001908152602001600020606060405190810160405290816000820154600019166000191681526020016001820154600019166000191681526020016002820160009054906101000a900473ffffffffffffffffffffffffffffffffffffffff1673ffffffffffffffffffffffffffffffffffffffff1673ffffffffffffffffffffffffffffffffffffffff16815250509050806000015181602001518260400151935093509350509193909250565b6060604051908101604052806000801916815260200160008019168152602001600073ffffffffffffffffffffffffffffffffffffffff16815250905600a165627a7a7230582074ab039a03756bd409c786f44f4e40a10da670821da4897fe49f6885ee2c02ca0029",
  "source": "pragma solidity ^0.4.4;\n\ncontract Merchant {\n\n  struct person {\n    bytes32 bankaccountNumber;\n    bytes32 amount;\n    address merchant;\n  }\n\n  mapping (address => person) customer;\n\n  function saveCustomerTransaction(address _person, bytes32 _account, bytes32 _amount, address _merchant) {\n    person memory user;\n    user.bankaccountNumber = _account;\n    user.amount = _amount;\n    user.merchant = _merchant;\n\n    customer[_person] = user;\n  }\n\n  function getCustomerTransaction(address _person) constant returns (bytes32, bytes32, address) {\n    person memory getCustomer;\n    getCustomer = customer[_person];\n    return (getCustomer.bankaccountNumber, getCustomer.amount, getCustomer.merchant);\n  }\n}",
  "sourcePath": "/Users/rsureen/Documents/projects/angelhack/merchant/contracts/merchant.sol",
  "compiler": {
    "name": "solc",
    "version": "0.4.19+commit.c4cbbb05.Emscripten.clang"
  },
  "schemaVersion": "2.0.0",
  "updatedAt": "2018-03-08T00:51:08.716Z"
}